:020000040800F2
:10400000FFFF01201D5B000823A6000825A600086D
:104010003DA700083FA7000841A7000800000000D6
:104020000000000000000000000000004D700008CB
:1040300043A7000800000000BD70000815A6000896
:10404000695B0008695B0008695B0008695B000840
:10405000695B0008695B0008695B0008695B000830
:10406000695B0008695B00085DA70008518F0008C4
:10407000695B0008858F0008695B0008798F00087C
:1040800047A70008458F0008695B0008695B0008C6
:10409000695B0008695B0008695B0008695B0008F0
:1040A000695B0008695B0008695B0008695B0008E0
:1040B00045A70008695B0008695B0008298F0008B4
:1040C000358F0008695B0008695B0008695B0008C0
:1040D000695B0008695B000861A700086DA700081C
:1040E0004FA70008695B0008695B0008695B00086E
:1040F000695B0008695B0008695B0008695B000890
:10410000695B0008695B0008695B0008695B00087F
:1041100065A70008695B0008695B0008695B000827
:10412000695B0008695B0008695B0008695B00085F
:10413000695B0008695B0008695B0008695B00084F
:10414000695B0008695B0008695B000871A70008EB
:10415000695B0008695B00084BA7000869A70008B5
:104160005D8F0008698F0008695B0008695B0008C3
:10417000695B0008695B0008695B0008695B00080F
:08418000695B0008695B00089F
:1041A00081F0004102E000BF83F0004330B54FEAE8
:1041B00041044FEA430594EA050F08BF90EA020F55
:1041C0001FBF54EA000C55EA020C7FEA645C7FEAE8
:1041D000655C00F0E2804FEA5454D4EB5555B8BF0B
:1041E0006D420CDD2C4480EA020281EA030382EA7C
:1041F000000083EA010180EA020281EA0303362D0E
:1042000088BF30BD11F0004F4FEA01314FF4801CE0
:104210004CEA113102D0404261EB410113F0004FF2
:104220004FEA03334CEA133302D0524263EB4303A9
:1042300094EA050F00F0A780A4F10104D5F1200E47
:104240000DDB02FA0EFC22FA05F2801841F10001A2
:1042500003FA0EF2801843FA05F359410EE0A5F176
:1042600020050EF1200E012A03FA0EFC28BF4CF0A7
:10427000020C43FA05F3C01851EBE37101F000455D
:1042800007D54FF0000EDCF1000C7EEB00006EEB6A
:104290000101B1F5801F1BD3B1F5001F0CD34908F4
:1042A0005FEA30004FEA3C0C04F101044FEA44524B
:1042B00012F5800F80F09A80BCF1004F08BF5FEAD2
:1042C000500C50F1000041EB045141EA050130BDB2
:1042D0005FEA4C0C404141EB010111F4801FA4F155
:1042E0000104E9D191F0000F04BF01460020B1FAAA
:1042F00081F308BF2033A3F10B03B3F120020CDAE2
:104300000C3208DD02F1140CC2F10C0201FA0CF0BF
:1043100021FA02F10CE002F11402D8BFC2F1200C24
:1043200001FA02F120FA0CFCDCBF41EA0C019040DA
:10433000E41AA2BF01EB0451294330BD6FEA040423
:104340001F3C1CDA0C340EDC04F11404C4F120020E
:1043500020FA04F001FA02F340EA030021FA04F320
:1043600045EA030130BDC4F10C04C4F1200220FA77
:1043700002F001FA04F340EA0300294630BD21FAB5
:1043800004F0294630BD94F0000F83F4801306BF7B
:1043900081F480110134013D4EE77FEA645C18BF6F
:1043A0007FEA655C29D094EA050F08BF90EA020F06
:1043B00005D054EA000C04BF1946104630BD91EAFE
:1043C000030F1EBF0021002030BD5FEA545C05D101
:1043D0004000494128BF41F0004130BD14F5800440
:1043E0003CBF01F5801130BD01F0004545F0FE41B4
:1043F00041F470014FF0000030BD7FEA645C1ABFE9
:10440000194610467FEA655C1CBF0B46024650EA1F
:10441000013406BF52EA033591EA030F41F400214B
:1044200030BD00BF90F0000F04BF0021704730B5D1
:104430004FF4806404F132044FF000054FF00001A6
:1044400050E700BF90F0000F04BF0021704730B567
:104450004FF4806404F1320410F0004548BF40423C
:104460004FF000013EE700BF42004FEAE2014FEA91
:1044700031014FEA02701FBF12F07F4393F07F4F6C
:1044800081F06051704792F0000F14BF93F07F4F9E
:10449000704730B54FF4607401F0004521F00041E1
:1044A00020E700BF50EA010208BF704730B54FF067
:1044B00000050AE050EA010208BF704730B511F06C
:1044C000004502D5404261EB41014FF4806404F1A4
:1044D00032045FEA915C3FF4DCAE4FF003025FEA26
:1044E000DC0C18BF03325FEADC0C18BF033202EBAE
:1044F000DC02C2F1200300FA03FC20FA02F001FA08
:1045000003FE40EA0E0021FA02F11444C1E600BFA6
:1045100070B54FF0FF0C4CF4E06C1CEA11541DBF59
:104520001CEA135594EA0C0F95EA0C0F00F0DEF824
:104530002C4481EA030621EA4C5123EA4C5350EA09
:10454000013518BF52EA033541F4801143F480135A
:1045500038D0A0FB02CE4FF00005E1FB02E506F0EB
:104560000042E0FB03E54FF00006E1FB03569CF040
:10457000000F18BF4EF0010EA4F1FF04B6F5007F46
:1045800064F5407404D25FEA4E0E6D4146EB0606B8
:1045900042EAC62141EA55514FEAC52040EA5E5041
:1045A0004FEACE2EB4F1FD0C88BFBCF5E06F1ED8EB
:1045B000BEF1004F08BF5FEA500E50F1000041EB22
:1045C000045170BD06F0004646EA010140EA0200CF
:1045D00081EA0301B4EB5C04C2BFD4EB0C0541EAF1
:1045E000045170BD41F480114FF0000E013C00F306
:1045F000AB8014F1360FDEBF002001F0004170BD2A
:10460000C4F10004203C35DA0C341BDC04F1140442
:10461000C4F1200500FA05F320FA04F001FA05F2CE
:1046200040EA020001F0004221F0004110EBD3709B
:1046300021FA04F642EB06015EEA430E08BF20EAC7
:10464000D37070BDC4F10C04C4F1200500FA04F36A
:1046500020FA05F001FA04F240EA020001F00041FC
:1046600010EBD37041F100015EEA430E08BF20EA6F
:10467000D37070BDC4F1200500FA05F24EEA020EB7
:1046800020FA04F301FA05F243EA020321FA04F0E6
:1046900001F0004121FA04F220EA020000EBD3709D
:1046A0005EEA430E08BF20EAD37070BD94F0000F9D
:1046B0000FD101F00046400041EB010111F4801FD1
:1046C00008BF013CF7D041EA060195F0000F18BF82
:1046D000704703F00046520043EB030313F4801FBE
:1046E00008BF013DF7D043EA0603704794EA0C0F78
:1046F0000CEA135518BF95EA0C0F0CD050EA41068E
:1047000018BF52EA4306D1D181EA030101F000410A
:104710004FF0000070BD50EA410606BF1046194632
:1047200052EA430619D094EA0C0F02D150EA01363E
:1047300013D195EA0C0F05D152EA03361CBF10467F
:1047400019460AD181EA030101F0004141F0FE411E
:1047500041F470014FF0000070BD41F0FE4141F4A2
:10476000780170BD70B54FF0FF0C4CF4E06C1CEAA2
:1047700011541DBF1CEA135594EA0C0F95EA0C0F57
:1047800000F0A7F8A4EB050481EA030E52EA033512
:104790004FEA013100F088804FEA03334FF0805533
:1047A00045EA131343EA12634FEA022245EA111560
:1047B00045EA10654FEA00260EF000419D4208BF11
:1047C000964244F1FD0404F5407402D25B084FEABE
:1047D0003202B61A65EB03055B084FEA32024FF46A
:1047E00080104FF4002CB6EB020E75EB030E22BFC7
:1047F000B61A754640EA0C005B084FEA3202B6EB87
:10480000020E75EB030E22BFB61A754640EA5C0035
:104810005B084FEA3202B6EB020E75EB030E22BFC5
:10482000B61A754640EA9C005B084FEA3202B6EBC6
:10483000020E75EB030E22BFB61A754640EADC0085
:1048400055EA060E18D04FEA051545EA16754FEAE7
:1048500006164FEAC30343EA52734FEAC2025FEA05
:104860001C1CC0D111F4801F0BD141EA00014FF094
:1048700000004FF0004CB6E711F4801F04BF014365
:104880000020B4F1FD0C88BFBCF5E06F3FF6AFAE81
:10489000B5EB030C04BFB6EB020C5FEA500C50F111
:1048A000000041EB045170BD0EF0004E4EEA113194
:1048B00014EB5C04C2BFD4EB0C0541EA045170BD9B
:1048C00041F480114FF0000E013C90E645EA060EDF
:1048D0008DE60CEA135594EA0C0F08BF95EA0C0F0D
:1048E0003FF43BAF94EA0C0F0AD150EA01347FF455
:1048F00034AF95EA0C0F7FF425AF104619462CE72C
:1049000095EA0C0F06D152EA03353FF4FDAE10468E
:10491000194622E750EA410618BF52EA43067FF4DF
:10492000C5AE50EA41047FF40DAF52EA43057FF46F
:10493000EBAE12E74FF0FF3C06E000BF4FF0010C7A
:1049400002E000BF4FF0010C4DF804CD4FEA410CDE
:104950007FEA6C5C4FEA430C18BF7FEA6C5C1BD0AB
:1049600001B050EA410C0CBF52EA430C91EA030F2C
:1049700002BF90EA020F0020704710F1000F91EA89
:10498000030F58BF994208BF90422CBFD8176FEA57
:10499000E37040F0010070474FEA410C7FEA6C5C25
:1049A00002D150EA013C07D14FEA430C7FEA6C5C2C
:1049B000D6D152EA033CD3D05DF8040B704700BF58
:1049C0008446104662468C461946634600E000BFA6
:1049D00001B5FFF7B7FF002848BF10F1000F01BD78
:1049E0004DF808EDFFF7F4FF0CBF012000205DF843
:1049F00008FB00BF4DF808EDFFF7EAFF34BF0120C8
:104A000000205DF808FB00BF4DF808EDFFF7E0FF60
:104A100094BF012000205DF808FB00BF4DF808EDB1
:104A2000FFF7CEFF94BF012000205DF808FB00BF18
:104A30004DF808EDFFF7C4FF34BF012000205DF8FA
:104A400008FB00BF4FEA410212F5001215D211D542
:104A50006FF47873B3EB625212D94FEAC12343F07B
:104A6000004343EA505311F0004F23FA02F018BFFD
:104A7000404270474FF00000704750EA013005D1C6
:104A800011F0004008BF6FF0004070474FF0000089
:104A9000704700BF4FEA4102B2F1E04324BFB3F5D3
:104AA000001CDCF1FE5C0DD901F0004C4FEAC002A5
:104AB0004CEA5070B2F1004F40EB830008BF20F089
:104AC0000100704711F0804F21D113F13872BCBF43
:104AD00001F00040704741F480114FEA5252C2F198
:104AE0001802C2F1200C10FA0CF320FA02F018BFE1
:104AF00040F001004FEAC1234FEAD32303FA0CFC34
:104B000040EA0C0023FA02F34FEA4303CCE77FEAC2
:104B1000625307D150EA01331EBF4FF0FE4040F40C
:104B20004000704701F0004040F0FE4040F40000BB
:104B3000704700BF80F0004002E000BF81F00041FC
:104B400042001FBF5FEA410392EA030F7FEA226C33
:104B50007FEA236C6AD04FEA1262D2EB1363C1BFC3
:104B6000D218414048404140B8BF5B42192B88BF32
:104B7000704710F0004F40F4000020F07F4018BF55
:104B8000404211F0004F41F4000121F07F4118BF75
:104B9000494292EA030F3FD0A2F1010241FA03FC1D
:104BA00010EB0C00C3F1200301FA03F100F0004305
:104BB00002D5494260EB4000B0F5000F13D3B0F1CD
:104BC000807F06D340084FEA310102F10102FE2A3C
:104BD00051D2B1F1004F40EBC25008BF20F00100AC
:104BE00040EA03007047490040EB000010F4000F5A
:104BF000A2F10102EDD1B0FA80FCACF1080CB2EBED
:104C00000C0200FA0CF0AABF00EBC250524218434B
:104C1000BCBFD0401843704792F0000F81F40001F0
:104C200006BF80F400000132013BB5E74FEA4103C3
:104C30007FEA226C18BF7FEA236C21D092EA030F2F
:104C400004D092F0000F08BF0846704790EA010FA9
:104C50001CBF0020704712F07F4F04D1400028BFD6
:104C600040F00040704712F100723CBF00F50000B8
:104C7000704700F0004343F0FE4040F400007047EE
:104C80007FEA226216BF08467FEA2363014642029A
:104C900006BF5FEA412390EA010F40F480007047AD
:104CA0004FF0000304E000BF10F0004348BF404253
:104CB0005FEA000C08BF704743F0964301464FF08F
:104CC00000001CE050EA010208BF70474FF00003EB
:104CD0000AE000BF50EA010208BF704711F000432C
:104CE00002D5404261EB41015FEA010C02BF8446FC
:104CF0000146002043F0B64308BFA3F18053A3F55B
:104D00000003BCFA8CF2083AA3EBC25310DB01FAA1
:104D100002FC634400FA02FCC2F12002BCF1004F25
:104D200020FA02F243EB020008BF20F001007047B6
:104D300002F1200201FA02FCC2F1200250EA4C000A
:104D400021FA02F243EB020008BF20EADC70704750
:104D50004FF0FF0C1CEAD0521EBF1CEAD15392EA5E
:104D60000C0F93EA0C0F6FD01A4480EA010C40023A
:104D700018BF5FEA41211ED04FF0006343EA501094
:104D800043EA5111A0FB01310CF00040B1F5000FD6
:104D90003EBF490041EAD3715B0040EA010062F185
:104DA0007F02FD2A1DD8B3F1004F40EBC25008BF6F
:104DB00020F00100704790F0000F0CF0004C08BF8D
:104DC00049024CEA502040EA51207F3AC2BFD2F15A
:104DD000FF0340EAC250704740F400004FF0000368
:104DE000013A5DDC12F1190FDCBF00F000407047A2
:104DF000C2F10002410021FA02F1C2F1200200FAE0
:104E000002FC5FEA310040F1000053EA4C0308BFA6
:104E100020EADC70704792F0000F00F0004C02BFF7
:104E2000400010F4000F013AF9D040EA0C0093F072
:104E3000000F01F0004C02BF490011F4000F013BCC
:104E4000F9D041EA0C018FE70CEAD15392EA0C0F3A
:104E500018BF93EA0C0F0AD030F0004C18BF31F0A5
:104E6000004CD8D180EA010000F00040704790F07B
:104E7000000F17BF90F0004F084691F0000F91F01F
:104E8000004F14D092EA0C0F01D142020FD193EAE5
:104E90000C0F03D14B0218BF084608D180EA01006D
:104EA00000F0004040F0FE4040F40000704740F049
:104EB000FE4040F4400070474FF0FF0C1CEAD05217
:104EC0001EBF1CEAD15392EA0C0F93EA0C0F69D073
:104ED000A2EB030280EA010C49024FEA402037D0DE
:104EE0004FF0805343EA111143EA10130CF00040D5
:104EF0008B4238BF5B0042F17D024FF4000C8B42C5
:104F000024BF5B1A40EA0C00B3EB510F24BFA3EBA4
:104F1000510340EA5C00B3EB910F24BFA3EB910374
:104F200040EA9C00B3EBD10F24BFA3EBD10340EACE
:104F3000DC001B0118BF5FEA1C1CE0D1FD2A3FF614
:104F400050AF8B4240EBC25008BF20F001007047C9
:104F50000CF0004C4CEA50207F32C2BFD2F1FF036C
:104F600040EAC250704740F400004FF00003013A9D
:104F700037E792F0000F00F0004C02BF400010F441
:104F8000000F013AF9D040EA0C0093F0000F01F055
:104F9000004C02BF490011F4000F013BF9D041EA77
:104FA0000C0195E70CEAD15392EA0C0F08D14202AA
:104FB0007FF47DAF93EA0C0F7FF470AF084676E77D
:104FC00093EA0C0F04D14B023FF44CAF08466EE756
:104FD00030F0004C18BF31F0004CCAD130F0004224
:104FE0007FF45CAF31F000437FF43CAF5FE700BF7C
:104FF0004FF0FF3C06E000BF4FF0010C02E000BFA5
:105000004FF0010C4DF804CD4FEA40024FEA410346
:105010007FEA226C18BF7FEA236C11D001B052EAFC
:10502000530C18BF90EA010F58BFB2EB030088BFC2
:10503000C81738BF6FEAE17018BF40F00100704731
:105040007FEA226C02D15FEA402C05D17FEA236C13
:10505000E4D15FEA412CE1D05DF8040B704700BF5A
:10506000844608466146FFE70FB5FFF7C9FF0028F1
:1050700048BF10F1000F0FBD4DF808EDFFF7F4FF2A
:105080000CBF012000205DF808FB00BF4DF808EDC3
:10509000FFF7EAFF34BF012000205DF808FB00BFE6
:1050A0004DF808EDFFF7E0FF94BF012000205DF808
:1050B00008FB00BF4DF808EDFFF7D2FF94BF0120B9
:1050C00000205DF808FB00BF4DF808EDFFF7C8FFB2
:1050D00034BF012000205DF808FB00BF4FEA40020A
:1050E000B2F1FE4F0FD34FF09E03B3EB12620DD916
:1050F0004FEA002343F0004310F0004F23FA02F080
:1051000018BF404270474FF00000704712F1610F26
:1051100001D1420205D110F0004008BF6FF00040FD
:1051200070474FF00000704742000ED2B2F1FE4FC0
:105130000BD34FF09E03B3EB126209D44FEA002366
:1051400043F0004323FA02F070474FF0000070472D
:1051500012F1610F01D1420202D14FF0FF307047CE
:105160004FF00000704700BF7BB972B90029BEBF85
:1051700000204FF0004106E008BF00281CBF6FF080
:1051800000414FF0FF3000F03BB882B0EC462DE913
:10519000005000F005F8DDF804E002B00CBC7047E8
:1051A0002DE9F041069C154606460F46984600F04C
:1051B00029F805FB01F300FB0838A5FB0023B21A10
:1051C000434467EB0303C4E90023BDE8F08100BF5B
:1051D0002DE9F041069C904606460F461D4600F01C
:1051E0005FF900FB05F5A0FB082308FB0155B21A87
:1051F0002B4467EB0303C4E90023BDE8F08100BF43
:10520000704700BF00292DE9F043C0F2A6800026B8
:10521000002BC0F29C80884694469E461546044664
:105220000F46002B3DD18A4259D9B2FA82F33BB1E5
:10523000C3F120029F4020FA02F29D4017439C4098
:10524000290C220CB7FBF1FEA8B201FB1E7742EA43
:10525000074700FB0EF3BB420AD97F190EF1FF325C
:1052600080F00581BB4240F20281AEF1020E2F4474
:10527000FF1AA4B2B7FBF1F301FB137744EA074727
:1052800000FB03F0B84208D97F1903F1FF3280F028
:10529000F080B84240F2ED80023B43EA0E43002228
:1052A00003E08B420FD900221346341C18BF01249F
:1052B00060424FF0000565EB450158405140001930
:1052C0006941BDE8F083B3FA83F2002A40F086809A
:1052D0008B4202D3844500F2DB800123E5E712B95B
:1052E0000123B3FBF2F5B5FA85F000283BD1781B1A
:1052F0004FEA154E1FFA85FC0122B0FBFEF8210C87
:105300000EFB180741EA07470CFB08F3BB4207D91D
:105310007F1908F1FF3102D2BB4200F2BD808846FE
:10532000FF1AA4B2B7FBFEF30EFB137744EA07475C
:105330000CFB03FCBC4507D97F1903F1FF3102D2F6
:10534000BC4500F2A7800B4643EA0843ADE7524252
:105350006FEA060663EB43035DE7404261EB410100
:105360004FF0FF3654E7C0F1200224FA02F107FAA9
:1053700000F385404FEA154ED7401943B7FBFEF2C4
:105380000B0C0EFB12771FFA85FC43EA07430CFB5C
:1053900002F79F4204FA00F407D95B1902F1FF30CB
:1053A00074D29F4272D9023A2B44DF1B89B2B7FBF9
:1053B000FEF80EFB187341EA03430CFB08F79F420B
:1053C00008D95B1908F1FF315CD29F425AD9A8F184
:1053D00002082B44D81B48EA02428EE7C2F12003A0
:1053E0002CFA03F10EFA02FE20FA03F741EA0E0E40
:1053F00008FA02F028FA03F14FEA1E453843B1FBE0
:10540000F5F8030C05FB18111FFA8EF743EA01416A
:1054100007FB08F38B420CFA02FC09D911EB0E01D1
:1054200008F1FF3930D28B422ED9A8F1020871441D
:10543000C91A80B2B1FBF5F305FB131140EA014133
:1054400007FB03F78F4208D911EB0E0103F1FF3080
:1054500016D28F4214D9023B714443EA0843C91B58
:10546000A3FB0C89494509D305D000221DE79646C8
:10547000FEE6134611E794404445F6D2013BF4E7BB
:105480000346EAE78846A5E7C846D1E702468CE727
:1054900013460AE7023B57E7A8F102082F443FE70B
:1054A0002DE9F041002B44D18A42154604464FD9DC
:1054B000B2FA82F70E464FB1C7F12003B94020FA85
:1054C00003F602FA07F50E4300FA07F44FEA154E09
:1054D000230CB6FBFEF0AFB20EFB106143EA0143B2
:1054E00007FB00F1994209D95B1900F1FF3280F006
:1054F000EC80994240F2E98002382B445A1AA4B257
:10550000B2FBFEF30EFB132244EA024207FB03F751
:10551000974208D9521903F1FF3180F0D8809742A1
:1055200040F2D580023B43EA004000263146BDE808
:10553000F0818B4247D8B3FA83F6002E48D18B42D4
:1055400002D3824200F2CD8001203146BDE8F081D5
:1055500012B90125B5FBF2F5B5FA85F8B8F1000FDF
:1055600077D14A1B4FEA154EAFB20126B2FBFEF0CF
:10557000230C0EFB102143EA014107FB00F38B4291
:1055800007D9491900F1FF3202D28B4200F2BA80EA
:105590001046C91AA4B2B1FBFEF30EFB131144EA84
:1055A000014407FB03F7A74208D9641903F1FF324E
:1055B00080F08F80A74240F28C80023B43EA00409B
:1055C0003146BDE8F081002630463146BDE8F08125
:1055D000C6F1200422FA04F5B3402B4320FA04FC60
:1055E00001FA06F721FA04F54FEA134E4CEA0707D1
:1055F000B5FBFEF8390C0EFB18551FFA83FC41EA87
:1056000005450CFB08F1A94202FA06F204D9ED188F
:1056100008F1FF3467D3A0466D1ABFB2B5FBFEF4A4
:105620000EFB145547EA05410CFB04FC8C4504D9DC
:10563000C91804F1FF355CD32C4644EA0844CCEB8E
:105640000101A4FB0223994248D344D020460026FE
:105650006CE7C8F1200401FA08F305FA08F520FA0E
:1056600004F7E1404FEA154E1F43B1FBFEF63A0C3A
:105670000EFB16111FFA85FC42EA01430CFB06F2F1
:105680009A4200FA08F407D95B1906F1FF3137D2C4
:105690009A4235D9023E2B449B1ABFB2B3FBFEF0AF
:1056A0000EFB103347EA03430CFB00F1994207D984
:1056B0005B1900F1FF3221D299421FD902382B44E5
:1056C0005A1A40EA0646674650E7104616E70B4668
:1056D00029E7134672E7B0409042B7D2601E002619
:1056E00024E7304622E7A94295D9A8F102081D44D3
:1056F00092E78C45A0D9023C19449EE71046DFE7AB
:105700000E46C9E70238294443E700BF844641EA10
:10571000000313F003036DD1403A41D351F8043B29
:1057200040F8043B51F8043B40F8043B51F8043B7B
:1057300040F8043B51F8043B40F8043B51F8043B6B
:1057400040F8043B51F8043B40F8043B51F8043B5B
:1057500040F8043B51F8043B40F8043B51F8043B4B
:1057600040F8043B51F8043B40F8043B51F8043B3B
:1057700040F8043B51F8043B40F8043B51F8043B2B
:1057800040F8043B51F8043B40F8043B51F8043B1B
:1057900040F8043B51F8043B40F8043B403ABDD28A
:1057A000303211D351F8043B40F8043B51F8043B2C
:1057B00040F8043B51F8043B40F8043B51F8043BEB
:1057C00040F8043B103AEDD20C3205D351F8043BBB
:1057D00040F8043B043AF9D2043208D0D2071CBF87
:1057E00011F8013B00F8013B01D30B8803806046B0
:1057F000704700BF082A13D38B078DD010F0030326
:105800008AD0C3F10403D21ADB071CBF11F8013B95
:1058100000F8013B80D331F8023B20F8023B7BE7E4
:10582000043AD9D3013A11F8013B00F8013BF9D20F
:105830000B7803704B7843708B78837060467047A9
:10584000A2EB0300704700BF02780B78012A28BF43
:105850009A42F5D16DE9044540EA0104CDE90267B9
:105860006FF0000C4FEA447212B380EA010414F0A6
:10587000070F6AD100F0070420F0070004F00305C9
:1058800021F007014FEAC505F0E8042314F0040FE6
:10589000F1E804670CFA05F462EA040266EA040619
:1058A0000AD063EA0403624667EA0407664603E037
:1058B000F0E80423F1E8046782FA4CF582EA060472
:1058C000A4FA8CF46CBB83FA4CF583EA0705A5FABD
:1058D0008CF595B950E9022351E9026782FA4CF53B
:1058E00082EA0604A4FA8CF483FA4CF583EA0705ED
:1058F000A5FA8CF52543DBD09CB92DBAB5FA85F411
:1059000024F0070427FA04F1DDE9026723FA04F31F
:1059100003F0FF0001F0FF01FDE80445A0EB0100EA
:10592000704724BAB4FA84F424F0070426FA04F188
:10593000DDE9026722FA04F202F0FF0001F0FF0144
:10594000FDE80445A0EB0100704714F0030F3CD1C3
:1059500010F0030428D150F8082B51F8083B82FAC4
:105960004CF582EA0305A5FA8CF55DB950F8042CD4
:1059700051F8043C82FA4CF582EA0305A5FA8CF54D
:10598000002DE8D02DBAB5FA85F424F0070423FAE7
:1059900004F122FA04F202F0FF0001F0FF01FDE839
:1059A0000445A0EB010070474FEAC40420F0030057
:1059B00050F8082B21F0030151F8083B0CFA04F4CD
:1059C00062EA040263EA0403C9E710F003041AD090
:1059D000A1EB040120F00300E40750F8042B06D0EB
:1059E0000FD28B785FFAA2F4E41A06D12BB1CB78F0
:1059F0005FFAB2F4E41A00D11BB920465DF8104BEF
:105A0000704701F1040150F8042BCC0721F0030189
:105A100051F8043B48D824D222F07F4482FA4CF556
:105A200094EA1325A5FA8CF50AD165B951F8043B1F
:105A300084EA0204B4EB036F0ED150F8042BEBE7B9
:105A40004FEA132355E035F07F454DD10878FDE846
:105A50000445C0F1000070474FEA126203F0FF03F3
:105A600047E002EA1C4482FA4CF594EA1345A5FA91
:105A70008CF50AD165B951F8043B84EA0204B4EB11
:105A8000034F0CD150F8042BEBE74FEA134330E0FF
:105A900015EA1C4528D10B884FEA124229E04FEA4B
:105AA000124203EA1C4324E002F0FF0482FA4CF5A0
:105AB00094EA1365A5FA8CF50AD165B951F8043B4F
:105AC00084EA0204B4EB032F09D150F8042BEBE76E
:105AD0004FEA13630DE015F0FF0F05D10B684FEA95
:105AE000122223F07F4304E04FF00000FDE804455C
:105AF000704712BA1BBA82FA4CF482EA0304A4FA81
:105B00008CF5B5FA85F402FA04F203FA04F34FEACD
:105B10001260FDE80445A0EB13607047002100F01F
:105B200004B80C4B5B58435004310B480B4B4218E4
:105B30009A42FFF4F6AF0A4A00F003B8002342F895
:105B4000043B084B9A42FFF4F9AF00F00FF804F061
:105B5000ADFC7047F46901080000002074040020C7
:105B600074040020A06C0020FFF7FEBF314B1A68C0
:105B700042F00100002218609A60196821F08470D8
:105B800020F480312C4819605860196882B021F4E3
:105B900080201860DA60009201921A6842F4803125
:105BA0001960244B186800F4003201920099481CD7
:105BB0000090019A1AB90099B1F5A04FF1D11B6874
:105BC00013F4003018BF01200190019A012A2FD14F
:105BD000184B1A4A196C41F080501864116841F44E
:105BE000404010609A689A60996841F4004098605B
:105BF0009A68134842F4A051996058601A6842F0BC
:105C0000807119601A680B489101FBD50D4B40F269
:105C100005711960826822F003018160836843F096
:105C2000020282600348816801F00C03082BF9D15D
:105C300002B070470038024010300024007000406D
:105C400008544007003C024000F108034FF0FF32C7
:105C5000002182604360C3600361016070470023DC
:105C60000361704743685A684A6042688A605A68AC
:105C7000916059604160086101684B1C0360704786
:105C800010B50A68531C01D1036907E000F108034D
:105C90005C682468944201D85B68F9E75A684A60F6
:105CA00091608B605960086101684B1C036010BDF6
:105CB000436882689A60816843684B6001694A68FA
:105CC000824204BF82684A60002303610868421E62
:105CD0000A600868704708B508F0B6F9FCE70000EC
:105CE00010B50E4B1A68044650600D4801688C428E
:105CF00007D20C4A10681B68191DBDE81040FFF759
:105D0000BFBF094A10681B68191DFFF7B9FF074894
:105D100001688C4238BF046010BD00BF58050020E8
:105D200070050020740500207C0400200000002085
:105D30000B4B1B6800230B4A106883420AD20A49A6
:105D400051F82320106B421E12F8011FBE29FBD010
:105D50000133F0E70549064B0A68186810187047C8
:105D60005805002088050020180500205405002053
:105D7000800500202DE9F74F0C9F0E9D8B4616469F
:105D80009A46814628B96B486B4940F227220BF0AE
:105D90008DFA042F05D9694867494FF40A720BF050
:105DA00085FA4C2001F0C4F8654B1A684C321A6031
:105DB0000446A0B11DB9B00001F0BAF8054661482B
:105DC00025630168B2005318036025B9204601F02D
:105DD0000BF92C4603E02846BE210EF027FE5A4858
:105DE0000268B118016044B9584853494FF40C7225
:105DF0000BF05CFA4FF0FF3099E0DFF86081256B23
:105E0000D8F80010524A06F1FF3CB60005EB8C03AF
:105E1000701E23F0070E042F34BF3D460425206476
:105E2000261D42F8214004F1340059460A224FF061
:105E3000000BCDF804E00EF075FEE56265643046B7
:105E400084F83DB0FFF70BFF04F11800FFF707FFE0
:105E5000C5F105032461A3616462C4F848B0DDF8AC
:105E600004C049466046524601F0E4F810F0070FBE
:105E70002060454605D037482F4940F272220BF08A
:105E800015FA0D9800B1046001F000F92968324B51
:105E90004A1C2A601D68FDB91C60304B1968012935
:105EA00022D12F48142202FB05000135FFF7CCFE5A
:105EB000052DF6D1DFF8CC802A4D4046FFF7C4FE11
:105EC0002846FFF7C1FE2848FFF7BEFE274B2849AA
:105ED000C3F800800D6007E02648016821B91A6800
:105EE000D06AB84298BF1C60234AE36A10688342B4
:105EF00088BF1360214A1168481C1060204A11684D
:105F00008B4288BF1360164A142000FB03203146E1
:105F1000FFF7A8FE01F0C8F8164B196831B10E481A
:105F20000268D36ABB4201D201F0A0F80120BDE8AB
:105F3000FE8F00BFAA4B0108B54B0108CA4B0108F0
:105F40005405002080050020B00400200D4C0108FD
:105F500018050020164C010858050020880500206F
:105F6000B40400209C0400205C0500207C04002078
:105F700074050020800400208C0500207C05002092
:105F8000780500208804002030B585B00024642204
:105F90000094019402940394114812492346FFF798
:105FA000E9FE012805460FD100F038FE012805461C
:105FB0000AD101F063F80C4B0C481D60046005B079
:105FC000BDE8304001F0B4B845B90948094940F28C
:105FD0004A5205B0BDE830400BF068B905B030BD9D
:105FE000D75C00087A4C010880040020700500206E
:105FF0007F4C0108B54B0108024B1A68501C186011
:10600000704700BF8404002010B501F03FF8034B37
:106010001C6801F049F8204610BD00BF7005002043
:1060200038B5304B1868002856D12F4801684A1CF3
:1060300002600368FBB92D4C2068016829B12C4827
:106040002C4940F2B6620BF031F92B4B22681868EC
:106050002A4920601A600A68531C0B602068284B8C
:10606000016811B94FF0FF3004E0204A1068C168A0
:10607000CA68506818601C4B214A19681068814230
:106080002ED31A4B19680A681AB94FF0FF331C490E
:1060900025E01C681449E068C4680A6863689A428D
:1060A00002D217490B6038BD251D2846FFF700FEB8
:1060B000A06A18B104F11800FFF7FAFD114AE36A6B
:1060C00011688B4288BF13600F4A142000FB032025
:1060D0002946FFF7C7FDD4E70C490A68531C0B603B
:1060E00038BD00BF84040020700500207C0400201F
:1060F000874C0108B54B0108740500207804002086
:106100000000002078050020B40400207404002062
:1061100070B52B4C23682BB92A482B4940F2855285
:106120000BF0C4F800F0B2FF2068411E2160256822
:106130000DB100243FE0254A1468002CF9D0244B0F
:106140001868F0B1DE68F468261D04F11800FFF746
:10615000AFFD3046FFF7ACFD1E4AE36A11688B4283
:1061600088BF13601C4A142000FB03203146FFF750
:1061700079FD1A4BE46A1968C86A844228BF012570
:10618000DDE717490A6842B1154C206838B1FFF7BE
:1061900047FF2368581E2060F6E7012D06D1114AFB
:1061A00000211160012400F061FF04E00D4C236820
:1061B000012BBED1F3E700F077FF204670BD00BF92
:1061C00084040020B24C0108B54B0108880500206A
:1061D0005C05002078050020B4040020580500204C
:1061E000740400208405002010B5044618B9BDE8E9
:1061F000104000F03BBFFFF7FFFE084B084918684E
:106200000A682418101DFFF753FD2046FFF768FDAC
:10621000FFF77EFF0028EAD010BD00BF7005002008
:106220005805002038B50C46054628B91A481B49C0
:106230004FF444720BF03AF82CB91948174940F260
:1062400011320BF033F8FFF7D7FE164A2B681168AE
:1062500099421C4402D29C4208D201E09C4207D3DE
:106260001068844294BF0020012002E0002000E07A
:1062700001202C6038B10C4B1A68101DFFF718FD77
:106280002046FFF72DFDFFF743FF18B9BDE8384062
:1062900000F0ECBE38BD00BFC74C0108B54B01088B
:1062A000DA4C0108700500205805002038B50D466D
:1062B00010B9054B1C6800E0044600F0E7FEA56439
:1062C000BDE8384000F0F0BE5805002010B51B4B6B
:1062D000186810B101221A482EE01A4C2168226871
:1062E0000B68106B834210D820682168343106F0A7
:1062F000B5FC0AE0216829B91348144940F26672D6
:106300000AF0D4FF23685A1E2260114C114A2168FA
:106310001423594350580028ECD0216803FB012373
:1063200003F108015A6850685860884204BF406809
:1063300058605B680348DA68026010BD840400207E
:106340008405002058050020F24C0108B54B0108D7
:1063500078050020B404002070B50E46044628B924
:106360000B480C4940F271720AF0A0FF0A4D2968EF
:1063700020461831FFF784FC28680430FFF798FCAA
:10638000064B19687018BDE87040FFF7A9BC00BF44
:10639000054D0108B54B0108580500207005002087
:1063A00070B50E46044628B90B480C4940F2A77256
:1063B0000AF07CFF0A4D296820461831FFF752FC8D
:1063C00028680430FFF774FC064B19687018BDE8A4
:1063D0007040FFF785BC00BF054D0108B54B0108B3
:1063E000580500207005002038B5C368DC682CB95A
:1063F0001448154940F2DD720AF058FF04F11805FF
:106400002846FFF755FC1148016871B9251D28463B
:10641000FFF74EFC0E4AE36A1068834288BF1360A0
:106420000C4A142101FB032000E00B482946FFF72A
:1064300019FC0A4BE06A1968CA6A904234BF00200E
:10644000012038BD114D0108B54B0108840400201E
:1064500078050020B40400205C05002058050020C9
:1064600010B5044628B90648064940F2FF720AF002
:106470001DFF054B054918680A682060626010BD61
:10648000204D0108B54B010878040020700500205C
:1064900038B50D46044628B91648174940F6090292
:1064A0000AF004FF2DB91548134940F60A020AF014
:1064B000FDFE00F0EBFD124B20681A68114B824282
:1064C00003D01968626891420FD2186862682B681D
:1064D000811A994209D20B480168521AD3182046F2
:1064E0002B60FFF7BDFF002400E0012400F0DCFD7D
:1064F000204638BD204D0108B54B01082A4D010842
:106500007804002070050020014B01221A607047BA
:1065100084050020014B1868704700BF5805002013
:10652000044B186828B104480168002914BF0220F0
:1065300001207047800400208404002070B50446C8
:10654000002829D0154DC36A2A68D06A834223D215
:106550002968CA6AC2F10500114AA0611421606964
:1065600001FB0323984214D1261D3046FFF7A0FB00
:106570002B680C48DB6A0168094AE3628B4288BFDA
:106580000360142000FB03203146BDE87040FFF794
:1065900069BB2968CA6AE26270BD00BF5805002065
:1065A000B40400207805002038B50446D0B1C26A92
:1065B000436C9A4216D0051D2846FFF779FB0A4A1C
:1065C000636C1168E3628B42C3F1050088BF1360FE
:1065D000064AA061142000FB03202946BDE838408C
:1065E000FFF740BB38BD00BF78050020B404002091
:1065F00010B5044600F04AFDA36C002B0CDD606A68
:1066000050B104F12400FFF7EFFE08B1FFF77CFF63
:10661000A36C581EA064EFE74FF0FF31A16400F0B7
:1066200043FD00F033FD626C002A0CDD236953B199
:1066300004F11000FFF7D8FE08B1FFF765FF616CA9
:106640004A1E6264EFE74FF0FF306064BDE810401F
:1066500000F02ABD70B5046803466CB1C568026CD1
:106660004668AD18B542C56028BFC4600846D96801
:10667000BDE87040FFF74AB870BD38B51346026CEC
:10668000044632B9056805BB4068FFF78DFF6560B9
:106690001BE063B98068FFF739F8A068216C626875
:1066A00043189342A36010D32068A0600DE0C06837
:1066B000FFF72CF8206CE26821684342D01888422A
:1066C000E06002D26268D318E360A16B4B1CA36345
:1066D00038BD000038B50D46044620B917481849A2
:1066E000F1220AF0E3FD00F0D1FC2368226CE06B9C
:1066F000A36000FB0231013802FB003361604FF000
:10670000FF320021A163E3606264A26455B921698C
:1067100081B104F11000FFF767FE01280AD100F0F3
:10672000A5FC07E004F11000FFF78EFA04F1240045
:10673000FFF78AFA00F0B8FC012038BD384D010897
:10674000404D010870B50E460546B0B14C2000F032
:10675000EFFB044688B105FB06F0013000F0E8FBD2
:10676000206038B1E563266420460121FFF7B2FFBF
:10677000204670BD204600F037FC044804494FF421
:10678000A7720AF093FD002070BD00BF7F4C010886
:10679000404D01082DE9FF410D46019298460446FF
:1067A00028B93948394940F231220AF07FFD15B93C
:1067B000236C002B5ED1002600F068FCA26BE06B1E
:1067C000824212D2294620464246FFF756FF616AAE
:1067D00039B104F12400FFF707FE012801D100F0D0
:1067E00045FC00F061FC01204BE0019F17B900F06F
:1067F0005BFC3DE016B902A8FFF732FE00F054FC46
:10680000FFF7FAFB00F042FC616C4B1C01D1002346
:106810006364A26C531C01D10020A06400F044FC0E
:1068200002A801A9FFF734FEE8B900F02FFCA76B1E
:10683000E66B00F039FCB7420FD104F1100001996A
:10684000FFF78AFD2046FFF7D3FEFFF761FC08B192
:106850000126B1E700F00AFCFAE72046FFF7C8FE80
:10686000FFF756FCF4E72046FFF7C2FEFFF750FCA7
:10687000002006E00648054940F232220AF016FDE3
:1068800099E704B0BDE8F081384D0108404D01089A
:10689000554D010838B54C2000F04AFB0446D8B1EC
:1068A00000250123C363456005608560C56085637D
:1068B00005644FF0FF306064A06404F11000FFF73E
:1068C000C3F904F12400FFF7BFF9204629462A4600
:1068D0002B46FFF75FFF05E0034804494FF4C772FA
:1068E0000AF0E4FC204638BDB04D0108404D0108D7
:1068F0002DE9F0410D4616461F46044628B91B48AF
:106900001B4940F29F320AF0D1FC0DB9236C03BB46
:1069100000F0B4FBA26B8046E06B824217D229469E
:1069200020463A46FFF7A9FEA16C4B1C0AD1606ACB
:1069300058B104F12400FFF757FD30B12EB1012406
:1069400034600DE0A36C5A1CA264012408E000240A
:1069500006E0084806494FF468720AF0A7FCD7E73A
:10696000404600F09DFB2046BDE8F081384D01080F
:10697000404D0108554D01082DE9FF410D4601929A
:106980009846044628B9464846494FF480620AF0C2
:106990008DFC15B9236C002B78D1002600F076FB16
:1069A000A06B38B320462946E668FFF753FEB8F1DE
:1069B000000F12D1A36B2168581EA06311B9FFF715
:1069C000A9FD606022698AB104F11000FFF70CFD97
:1069D00001280BD100F04AFB08E0626AE6602AB1A8
:1069E00004F12400FFF700FD0028F3D100F05CFB68
:1069F000012052E0019F17B900F056FB44E016B9A0
:106A000002A8FFF72DFD00F04FFBFFF7F5FA00F0AD
:106A10003DFB616C4B1C01D100226264A36C01330D
:106A200001D10020A06400F03FFB02A801A9FFF7FC
:106A30002FFD20BB00F02AFBA66B00F035FBC6B98A
:106A4000216831B900F022FB6068FFF777FD00F0A4
:106A50002BFB04F124000199FFF77EFC2046FFF791
:106A6000C7FDFFF755FB08B1012697E700F0FEFAD6
:106A7000FAE72046FFF7BCFDFFF74AFBF4E72046A4
:106A8000FFF7B6FDFFF744FB002006E00648054986
:106A900040F201420AF00AFC7FE704B0BDE8F08151
:106AA000384D0108404D0108BB4D0108F8B50D46B1
:106AB0001646044628B91B481B4940F296420AF084
:106AC000F5FB0DB9236C03BB00F0D8FA0746A06BA9
:106AD000C8B129462046FFF7BDFDA16B4A1EA2633F
:106AE000636C01330AD122695AB104F11000FFF737
:106AF0007BFC30B12EB1012434600DE0606C411C90
:106B00006164012408E0044606E00848064940F2B2
:106B100097420AF0CBFBD7E7384600F0C1FA20468F
:106B2000F8BD00BF384D0108404D0108BB4D0108BC
:106B300010B5044628B90648064940F2CE420AF08C
:106B4000B5FB00F0A3FAA46B00F0AEFA204610BD2E
:106B5000394D0108404D010838B504460D4600F096
:106B600095FA636C013301D100206064A16C4B1C69
:106B700001D10022A26400F097FAA36B23B904F1BB
:106B800024002946FFF70CFC2046BDE83840FFF7FB
:106B90002FBD0000F8B50D4C00F078FA25688DB9CE
:106BA0000B4F0C4E3846FFF74FF83046FFF74CF8C6
:106BB00009480A4B06600C2114202A461F60FFF783
:106BC000C1FD2060BDE8F84000F06EBABC050020B1
:106BD00094050020A8050020C40500209005002091
:106BE00010B5044691424160206105D88169D21AEE
:106BF0008A420CD2074B04E09A4201D2994206D253
:106C0000054B1868211DFFF73BF8002010BD01203F
:106C100010BD00BFC4050020900500201FB5FFF780
:106C2000B9FF0B4B186858B1002301210091019363
:106C300002930393074808496422FFF79BF828B999
:106C400006480749DD220AF031FB002005B000BDEF
:106C5000BC0500206D6D0008114E01087F4C010835
:106C6000194E01082DE9F041804617461E460D4693
:106C700031B90D480D49EA220AF018FB2C4610E004
:106C8000282000F055F9044658B1FFF783FF069B12
:106C9000C4F80080A561E76126626362201DFEF7EB
:106CA000DEFF2046BDE8F0812F4E0108194E010895
:106CB0007FB50F4D064628681C46B8B10191029277
:106CC000039673B9FFF72CFC012818BF22462868E9
:106CD00008BF089A01A90CBF23461346FFF75AFDC7
:106CE00004E01A4601A90023FFF702FE04B070BDBC
:106CF000BC050020F7B5194E33681A6842B3DC684A
:106D00002568DF68FC68271D3846FEF7D1FF636AF7
:106D100020469847E269012AEDD1A0692918A942C5
:106D200006D96160246130683946FEF7A9FFE2E7C1
:106D30000021009120462A460B46FFF7B9FF0028A4
:106D4000D9D10748074940F276220AF0AFFAD2E7D4
:106D50000548016803603160FEBD00BF900500205A
:106D60004B4E0108194E0108C4050020F0B587B04C
:106D7000554B18680768D7F1010738BF002717B9C6
:106D8000C1680D6800E00025504CFFF735F9FFF7AA
:106D90003BF922689042064603D2FFF7ABFF01237E
:106DA00000E000232660002B34D147BBB54226D833
:106DB000FFF7AEF944490C68E268D468201DFEF77D
:106DC00077FFE369012B16D1A16920466918324685
:106DD0002B46FFF705FF01280DD1009720463946C5
:106DE0002A463B46FFF764FF28B93948394940F243
:106DF00055120AF05BFA676A2046B84723E0364826
:106E0000A91B0068FFF7A8FEFFF782F9D8B900F0C8
:106E10002DF918E0FFF77CF915E0059C666916B1BD
:106E2000201DFEF745FFFFF7EFF8284D07462868BD
:106E3000874201D2FFF75EFF039E2F60022E2DD006
:106E4000032E3CD04EB1244D0022286803A91346DE
:106E5000FFF792FD0028E0D18AE7A269049B204653
:106E600099183A46FFF7BCFE0128ECD1636A204628
:106E70009847E1690129E6D1A76900962046049C5C
:106E800031463A193346FFF713FF0028DBD110488B
:106E9000104940F22A220AF009FAD4E7049DA561BC
:106EA0002DB90E480B4940F237220AF0FFF9A669C6
:106EB0002046B9193A463B46FFF792FEC3E7204603
:106EC00000F092F8BFE700BF90050020C005002049
:106ED0004B4E0108194E0108BC050020534E010815
:106EE000006A704710B5104B1A68824201D21346EF
:106EF000FAE759685C18844203D140684118596028
:106F0000184641684418944208D1084C2468A242AB
:106F100004D05268511841601A68126883420260B6
:106F200018BF186010BD00BFCC050020C8050020A8
:106F300070B5294D0446FFF75FF82A68A2B9274BC0
:106F4000274923F0070606F59C40264B4A60C2609D
:106F500082600E6044F6086200F1080186E80600CF
:106F60001A682960103A1A602CB1103463071CBFEC
:106F700024F007040834661E44F616618E4222D8B7
:106F8000174B1D686868A04204D3134E31688D42C8
:106F900006D118E02A68002AF7D02B461546F1E7FB
:106FA00028681E6818606B681A1B1036202A04D9DE
:106FB000281942606C60FFF795FF0A48696803680A
:106FC0005A1A026000E00026FFF7A2F80EB905F099
:106FD00031FE304670BD00BFC8050020DC05002032
:106FE000CC0500200400002010B5044678B1FFF75E
:106FF00003F8074B54F80C1C1A6888181860A4F1A1
:107000001000FFF76FFFBDE81040FFF781B810BD1B
:1070100004000020014B1868704700BF04000020E6
:1070200003480068006880F3088862B600DF00BF8C
:1070300008ED00E04FF0807300E90A00002340F8FB
:107040000C3C40F8202C403870470000064B196873
:107050000868B0E8F00F80F309884FF0000080F373
:1070600011884EF00D0E704758050020024B4FF06E
:1070700080521A60704700BF04ED00E0EFF311800A
:107080004FF05F0181F311887047002008B5FFF7CA
:10709000F5FF024B1A68501C186008BD080000205C
:1070A00080F3118870470000034B1868013818609E
:1070B00008B9FFF7F5BF704708000020EFF309801B
:1070C0000C4B1A6820E9F00F10602DE908404FF0D2
:1070D0005F0080F31188FFF7F9F84FF0000080F3AC
:1070E0001188BDE8084019680868B0E8F00F80F31F
:1070F000098870475805002008B5064B4FF08052AC
:107100001A60FFF7BBFFFEF78BFF0020BDE80840C9
:10711000FFF7C6BF04ED00E0034B044A07201A60E6
:1071200043F8040C704700BF14E000E03F900200F9
:1071300010B5094B1A6842F47F001860196841F0D5
:107140007F441C60FFF7E8FF044B00241C60FFF73E
:1071500067FF204610BD00BF20ED00E008000020C2
:10716000044BDA6809B1104301E022EA0000D8605C
:10717000704700BF002004E0036823F001010160B4
:107180002D49002221238842026042608260C26051
:107190000261436117D0294B98421BD0284988428D
:1071A00020D0284B984225D0274988422AD0274B07
:1071B00098422ED02649884232D0264B984236D06B
:1071C0002549884203D13D2341F8083C7047234BB1
:1071D000984204D14FF4746143F8201C7047204951
:1071E000884204D14FF4741241F8382C70471D4B7B
:1071F000984204D14FF0746043F8500C70471A491C
:10720000884203D1194B41F8643C7047184B9842AF
:1072100003D1184943F87C1C70471749884203D1B1
:10722000164A41F8942C7047154B984203D14FF001
:107230003D5043F8AC0C704710600240286002409B
:107240004060024058600240706002408860024026
:10725000A0600240B860024010640240286402400E
:107260004064024058640240706402403D000020C7
:1072700088640240400F0020A064024000003D20CE
:10728000B864024010B50268124BCC6813400A681B
:1072900014434A6914438A691443CA6914430A6A45
:1072A00014434A6A14438A6A14434A6B14438A6B30
:1072B0001443234303604269CB6A22F007040A6B3C
:1072C0001A43224342610B6943604A6882608968BD
:1072D000C16010BD3F801CF0036811B143F0010193
:1072E00001E023F001010160704741607047406890
:1072F00080B27047006800F0010070470B0611D59E
:1073000043694AB143F080038029436114D0036884
:1073100001F01E021A430EE023F080028029426130
:1073200004D17047802907D0002AF0D1036801F00A
:107330001E0123EA0102026070470000114B124A4D
:1073400010B5124CA0428CBF14461C4621F0F0230D
:1073500023F0C3132BB1006800F01E0202EAD12211
:1073600002E0406900F0800288004CBF6368236837
:1073700021F0F02121F08210184002D0101C18BF1B
:10738000012010BD00600240006402400F64024012
:1073900010B5084B084A094CA0428CBF104618464D
:1073A00011F0005F21F0F02121F0821314BFC360BF
:1073B000836010BD00600240006402400F64024020
:1073C00010B58379002B31D01E4B01681C6824EA6C
:1073D00001021A605C68016824EA01025A600479BB
:1073E00004F1804101F59E32016814682143116067
:1073F0009968026821EA020199600268D96821EA65
:107400000201D96041790268102908D199680A43BC
:107410009A60D968006841EA0002DA6010BD01F1A3
:10742000804000F59E3319680A4308E0017900683E
:1074300001F1804202F59E331A6822EA00021A60C6
:1074400010BD00BF003C0140014B5861704700BFB8
:10745000003C0140034B596908420CBF0020012049
:10746000704700BF003C0140014B5861704700BFAE
:10747000003C0140F0B5002301220D6802FA03F23E
:10748000154095422ED15A000324066804FA02F4EE
:10749000E443264006600E79076806FA02F63E438A
:1074A00006600E79013E012E13D887682740876059
:1074B0004E79876806FA02F63E438660466826EAF9
:1074C000050545608D79466805FA03F5ADB235438B
:1074D0004560C5682C40C460CD79C46805FA02F2E5
:1074E0002243C2600133102BC6D1F0BD036919429B
:1074F0000CBF002001207047018370474183704713
:1075000001F00703C908083130B59B0050F821503D
:107510000F2404FA03F425EA040440F8214050F84B
:10752000214002FA03F2144340F8214030BD00002C
:10753000F0B58688044685B026F03F000D4601046C
:1075400068460E0C00F05EF82C4A0299B1FBF2F08E
:1075500087B23E43A680238823F0010213041A0C4D
:1075600022802B68264A93420AD85B00B1FBF3F0D5
:10757000013783B2BFB22784032B98BF042320E0D6
:10758000EE884BF6FF72964204D103225343B1FBBF
:10759000F3F305E019225343B1FBF3F141F48043C7
:1075A00099B20A0508BF41F001014FF496725043A9
:1075B00041F400434FF47A7190FBF1F0421C91B218
:1075C0002184A383228891B241F001032380208883
:1075D00020F4816222F002010B04AA886989180C48
:1075E00041EA0203184380B220802989AA8941EA2E
:1075F000020398B2208105B0F0BD00BF40420F00E9
:10760000A086010010B51E4B9A6802F00C010429F7
:1076100003D0082903D01B4B18E01B4B16E05C6815
:107620005A68596814F4800F14BF174B154B02F0B9
:107630003F02B3FBF2F3124AC1F38814516863436B
:10764000C1F30144621C5100B3FBF1F30C49036028
:107650008C680E4AC4F30313D45C036823FA04F362
:1076600043608C68C4F38224145D23FA04F48460BC
:107670008968C1F34231525C23FA02F3C36010BD42
:10768000003802400024F40000127A000C000020B0
:10769000044B1A6B09B1104301E022EA00001863A1
:1076A000704700BF00380240044B5A6B09B11043C9
:1076B00001E022EA00005863704700BF0038024032
:1076C000044B1A6C09B1104301E022EA000018646F
:1076D000704700BF00380240044B5A6C09B1104398
:1076E00001E022EA00005864704700BF0038024001
:1076F000044B1A6A09B1104301E022EA0000186243
:10770000704700BF003802401C4A038890429BB279
:1077100012D002F5806290420ED0B0F1804F0BD0B3
:10772000A2F58032904207D002F58062904203D0E9
:1077300002F58062904203D14A8823F0700313431C
:107740000F4A904208D002F58062904204D023F4A0
:1077500040730A899BB2134303804B68C362074B93
:107760000A889842028503D003F58062904201D1D5
:10777000897A018601238382704700BF000001409F
:1077800000100040038819B199B241F0010303E0F1
:1077900023F001010A04130C03807047038C23F0CB
:1077A000010270B51404250C0584068C8388028BB5
:1077B00022F073059CB22B040D881A0C26F00206E9
:1077C00033042A434E888D8935431B0CADB22B43BD
:1077D0000D4DA84203D005F58065A8420ED123F0D7
:1077E0000806CB898D881E4326F004032B434E8A5E
:1077F0000D8A354324F44074ADB22C438480028357
:1078000089684163038470BD00000140038C23F04C
:10781000100230B51404250C0584038C8288048B77
:1078200024F4E6452C040D88240C23F0200344EABC
:1078300005241D042B0C8D8943EA05134D8843EA6A
:107840000513134DA84292B2A4B29BB203D005F522
:107850008065A84215D1CD8923F080039BB243EA0D
:1078600005134FF6BF751D408B8845EA0315ABB273
:107870000D8A22F4406242EA85024D8A42EA85027C
:1078800092B28280048389688163038430BD00BF23
:1078900000000140038C23F4805230B51404250C01
:1078A0000584038C8288858B94B225F4E642150406
:1078B0002A0C0D8823F4005342EA05221D042B0CE8
:1078C0008D8943EA05334D8843EA05330A4DA842C2
:1078D00092B29BB203D005F58065A84205D10D8A0E
:1078E00024F4804444EA8514A4B2848082838968A5
:1078F0000164038430BD00BF000001404163704754
:107900008163704701647047038B23F008021304FE
:107910001A0C114301837047038B23F40062130494
:107920001A0C42EA01218BB203837047838B23F444
:10793000006213041A0C42EA01218BB28383704760
:10794000B0F8443029B16FEA43436FEA53418AB239
:1079500001E059044A0CA0F84420704783899BB287
:107960000AB1194301E023EA010181817047000057
:1079700030B50D46038AEA88044698B220F4405197
:1079800011432182A38923F4B05020F00C010A0492
:107990002889A988130C40EA01026889024391B240
:1079A0000B43A381A28AAB8990B220F4407185B0C9
:1079B0001943A1826846FFF725FE1A4A944203D074
:1079C00002F58060844201D1039B00E0029BA18903
:1079D0000AB2002A4FF019002A6800FB03F301DA0B
:1079E000510000E09100B3FBF1F16423B1FBF3F02F
:1079F0000201100903FB1011A08900B2002806DA69
:107A0000C9003231B1FBF3F303F0070005E00901CF
:107A10003231B1FBF3F303F00F00024390B2208147
:107A200005B030BD00100140838919B199B241F40D
:107A3000005303E023F400510A04130C83817047C0
:107A4000C905CA0D828070478088C105C80D70477E
:107A5000838A9BB20AB1194301E023EA01018182C2
:107A60007047C1F3421310B5012401F01F01A34276
:107A700004FA01F101D10C3004E0022B01D11030E5
:107A800000E01430036812B143EA010201E023EA86
:107A90000102026010BDC9438AB20280704710B56E
:107AA000C1F34214012201F01F03012C02FA03F278
:107AB00001D1838903E0022C0CBF038A838A9BB225
:107AC0000088134082B243B1090A012303FA01F08E
:107AD00010420CBF0020012010BD184610BD090A3D
:107AE000012303FA01F3DA4391B2018070470000E9
:107AF00040F0BF60024B40F40031D960704700BFD6
:107B000000ED00E0C37813B31749CB684178DA433E
:107B1000C2F30223C3F10402D2B201FA02F1CAB2E3
:107B20000F2141FA03F381780B401A4303781201C5
:107B3000D1B203F1604202F56143012283F80013E0
:107B4000007800F01F03410902FA03F007E0007813
:107B50000122410900F01F0302FA03F02031034B18
:107B600043F82100704700BF00ED00E000E100E0B5
:107B700030B501F003028908094B0231920053F835
:107B800021500F2404FA02F425EA040443F82140AA
:107B900053F8214000FA02F0044343F8214030BD7D
:107BA000003801404FF44070FFF7A2BF4FF0FF32A2
:107BB00082611021FF220173026100F0BBBF00004F
:107BC00038B5037B012B044605D0007B102802D07A
:107BD000217B002974D122783A4D55F82200038880
:107BE00023F001010A04150C0580207801F02AF821
:107BF000207800F0B5FFE078022803D12078617882
:107C000001F0DAF820782F4D00F096FF207800F090
:107C1000BBFF237855F823100A8890B240F0010387
:107C20000B80217855F82100E169FFF781FC62693A
:107C3000D10207D5207855F8203019888AB242F051
:107C4000400018806369DA071BD521781D4A52F875
:107C50002100838999B241F001038381207852F891
:107C600020108B8923F0FE000304180C88812178F2
:107C700052F8213061699A8990B201F0FE02024304
:107C80009A8163695B0009D520780E4951F820205C
:107C9000138823F4806001040B0C1380E278022A1D
:107CA00004D120786178626900F0F4FF207861697E
:107CB0006278E37801F098F801202073002038BD45
:107CC000012038BD740000200F4A104910B54BF652
:107CD000FF74D4804FF48064034654814FF4804491
:107CE0000020948103241081116090804FF0FF31B7
:107CF0005C700224187398701861DC70586098608A
:107D000058619961DA6110BD4C600020A0860100C5
:107D100008B58378012B47D141684A68002A43D1CE
:107D2000037B012B02D0017B06293DD103783E4A1B
:107D300052F823304FF2FF019982C378012B71D1A1
:107D4000017852F821108B8823F400731B041B0C5C
:107D50008B80017852F821108B8823F480631B04F8
:107D60001B0C8B8003780621816152F82320118B34
:107D700001F0020399B229B18369012B02D0816914
:107D80004B1CF4D18269012A02D08369013303D1EB
:107D9000BDE80840FFF70ABF4FF0FF3101228161C3
:107DA000027303F0CFFB3DE002781F4B53F8221023
:107DB000898A01F4706101611021017353F8222056
:107DC0004FF2FF0191820269D10510D5017853F875
:107DD00021100A886FEA42426FEA524292B20A8048
:107DE000017853F821301A8851044A0C1A8003692B
:107DF0009A0511D50C4A017852F821100B886FEAC8
:107E000043436FEA53439BB20B80017852F8213011
:107E10001A8851044A0C1A800369036901690078C1
:107E200003F086FB002008BD7400002010B54FF061
:107E3000FF338361604A61490446007852F820307C
:107E400051F8202013F0005F14BF526812681342EB
:107E50000CBF00230123002B6ED0636800225A6000
:107E60006069430464D4A178002961D1237854481F
:107E700050F82320918821F4006319040B0C93809F
:107E80000522A261227850F82200818A01F00403C1
:107E900099B219B1A069012807D12DE0A369012B7E
:107EA000F8D0A1694B1CF0D1F4E7A369013323D0CA
:107EB00060694FF0FF310002A16125D4404B53F8B7
:107EC0002220118888B240F40071118020780622A7
:107ED000A26153F820100B8B03F0020290B228B17C
:107EE000A369012B02D0A269531CF4D1A169012915
:107EF00002D0A069431C04D12046BDE81040FFF722
:107F000055BE4FF0FF33A36122782E4951F822006D
:107F1000036823F0010202602178294850F82120EB
:107F2000938823F400710804030C938001222273C8
:107F3000204603F007FB27E02349204B51F820207F
:107F400053F8201012F0005F14BF496809680A4214
:107F50000CBF00220122BAB91C4B184953F820204B
:107F600051F8203012F0005F14BF5B681B681A42A2
:107F70000CBF002201223AB11021124B217353F899
:107F8000200062684168516023780B4C0E4854F819
:107F900023200E49094C50F8230054F8234051F88F
:107FA000233012F0005F42EA000242EA030214BFEB
:107FB000E260A260002010BDD44E010898000020AD
:107FC0007400002080000020844E0108C84E010883
:107FD00010B54FF0FF338361564A57490446007885
:107FE00052F8203051F8202013F0005F14BF52687F
:107FF000126813420CBF00230123002B5AD0A36840
:1080000000225A606069020450D4A178002979D115
:1080100023784A4A52F8230001888BB243F4007156
:108020000180207852F820108B8823F4006003042C
:10803000180C888023780621A16152F82300028B56
:1080400002F002018AB21AB9A069012807D109E039
:10805000A1690129F8D0A2690132F0D1F4E7A16940
:108060004A1C04D12046BDE81040FFF79FBD4FF0E9
:10807000FF323348A26150F823303048196821F0AC
:1080800001021A60237850F823108A8822F40073C2
:108090001A04130C8B80217850F82100828822F476
:1080A000805319040A0C828001202073204603F0BB
:1080B00059FA27E02349204B51F8202053F820108B
:1080C00012F0005F14BF496809680A420CBF002221
:1080D0000122BAB91C4B184953F8202051F820301E
:1080E00012F0005F14BF5B681B681A420CBF0022CD
:1080F00001223AB11021124B217353F82000A268DB
:108100004168516023780B4C0E4854F823200E49E7
:10811000094C50F8230054F8234051F8233012F052
:10812000005F42EA000242EA030214BFE260A2607A
:10813000002010BD9C4E0108980000207400002013
:10814000A4000020284F0108E84E010838B5114C62
:1081500004F10C0554F8043BCBB19A698AB94FF08D
:10816000FF30986154F8043C1021197354F8040C42
:10817000026962B9FF23036154F8040C00F0DAFCD1
:1081800005E09869421C02D099694A1E9A61AC4286
:10819000E0D138BD4800002038B5C378012B044633
:1081A00002D0022B51D109E001782B4B53F821006A
:1081B000828891B241F4806383804AE0264A057840
:1081C00052F82500838823F400752B041D0C85804C
:1081D000207852F820309D88A8B240F400659D8038
:1081E000237B062B154601D0012910D12078616828
:1081F000626900F095FD207855F820108B8823F4F3
:1082000080521004030C8B802178144A16E0227BE4
:108210000A2A01D002291CD1A1682078626900F0E5
:10822000A5FDA17841B920780B4B53F820108A881E
:1082300090B240F480538B802178094A52F8211083
:108240000A6842F00100086003E01020207301205A
:1082500038BD002038BD00BF740000208000002021
:10826000A400002037B59C4902780023ADF8063001
:1082700051F822300446988A00F0DF00ADF806007D
:10828000A078002840F0C382BDF80600C0071FD5C3
:108290004FF0FF33E069A3618389B3F5804F40F06D
:1082A000B682207B51F82210052807D1A268936876
:1082B00043F00100C2B20A820A2105E062689368B5
:1082C00003F0FE000882062121730421A1619EE2D1
:1082D000BDF8061001F0020080B2002800F0DB803B
:1082E000E378022B0BD1207B062801D1606803E0E4
:1082F000217B0A2903D1A0684168481C01E04FF0A6
:10830000FF30A061217B0A2913D1012B11D1A06874
:10831000406870B9704951F822201588ADB245F413
:1083200000751580227851F82220918A128B2373D0
:108330006EE2227B0A2A05D1012B03D120460221BD
:10834000FFF72AFF237B0A2B18D1A1684868012870
:1083500014D12178604850F82120138823F48061DB
:108360000B04190C1180227850F82200828A028BAB
:10837000038899B241F40072028025E0E278012A74
:108380001CD1237B0A2B19D1A1684868022815D17A
:108390002278514850F822100B8823F4806213048D
:1083A0001A0C0A80217850F821301A8891B241F4D1
:1083B00000621A80237850F8231003E02278464B9D
:1083C00053F822108A8A0B8B6069C10300F11F8267
:1083D000237B062B5AD110F4003F21783E48626877
:1083E00050F8213013D1127B1A8221780323A36124
:1083F00050F82100828A02F0800399B200293AD114
:10840000A269012A37D0A3690133F3D133E0517B4C
:1084100003221982A261227850F82200838A03F095
:1084200080018BB21BB1A069012807D1D2E1A169FB
:108430000129F8D0A3690133F0D1F4E7A1694B1CFD
:1084400000F0C8814FF0FF332348A36150F8221099
:108450006268137B0B8222780321A16150F822000D
:10846000838A03F080018AB22AB9A369012B02D062
:10847000A1694B1CF4D1A069012800F0AB81A1696E
:108480004B1C00F0A7814FF0FF32A2612046032170
:10849000FFF782FEBBE1BDF8062002F080018AB240
:1084A000002A68D0217B062965D1E178012940F0B6
:1084B000AE816268516889B1126811781982636867
:1084C0005A68511E596063685A68002A00F09F81FB
:1084D00019684A1C1A609BE174000020606902025E
:1084E00004D41A8891B241F4007018802378964A17
:1084F00052F82310888820F400731804030C8B8032
:10850000217852F82100838823F480610B04190C30
:108510008180606923784FF00601A16110F4000F9B
:1085200052F8232010D1918A01F0840090B1A36900
:10853000012B0FD0A1694B1CF5D10BE0A0690128DC
:1085400008D0A369013305D0908A00F0800399B266
:108550000029F3D1A269012A00F03C81A069431CE3
:1085600000F038814FF0FF330121A36120462173D1
:1085700002F0E8FF4BE1BDF8060000F0400291B2C6
:10858000002900F04481207B0A2840F04081E278F5
:10859000012A40F03C81A0684168032900F2D6809E
:1085A0004168012906D100681B8A0370A1684A68E6
:1085B000501E4860A3685968022947D12278624852
:1085C00050F822108B8823F4806213041A0C8A80DE
:1085D00022780521A16150F82200838A03F004016A
:1085E0008BB21BB1A069012807D1F3E0A169012971
:1085F000F8D0A3690133F0D1F4E7A1694B1C00F076
:10860000E98051484FF0FF33A36150F822201188D0
:108610008BB243F400711180A2682178136850F87E
:108620002120118A1970A3681A68511C1960A36867
:108630005A68511E59602178A36850F821001A68C1
:10864000038A1370A1684A68501E4860A36859687D
:10865000032940F0868020783B4A52F820108B880E
:1086600023F480600304180C888023780521A1611D
:1086700052F82300828A02F004018AB21AB1A0697A
:10868000012807D1A6E0A1690129F8D0A269013229
:10869000F0D1F4E7A1694A1C00F09C802A484FF011
:1086A000FF32A26150F823100B8823F48062130478
:1086B0001A0C0A80A16822780B6850F822100A8AE6
:1086C0001A70A36819684A1C1A60A36859684A1E80
:1086D0005A6021780523A36150F82100828A02F0B4
:1086E00004039AB21AB1A069012807D172E0A36904
:1086F000012BF8D0A269531CF0D1F4E7A369013330
:1087000068D011484FF0FF32A26150F8213019882B
:108710008AB242F400711980A36821781A6850F86F
:108720002130198A1170A2681368591C1160A2685F
:108730005368591E51602378A26850F823001268CC
:10874000018A117009E000BF7400002002681B8AD2
:108750001370A06801684A1C0260A3685A68501E22
:108760005860A1684B68002B51D12078294A52F8F3
:1087700020108B8823F400700304180C8880217863
:1087800052F82100838823F480610B04190C818046
:10879000237852F82310888A098A6169880204D5EF
:1087A00021F4001002216061E1700620A06152F8FE
:1087B00023100A8B02F0020082B22AB1A0690128BC
:1087C00002D0A2690132F4D1A169012902D0A069C5
:1087D000421C03D12046FFF7E9F919E04FF0FF32C0
:1087E0000C48A26150F8233019888AB242F48061A3
:1087F0001980237850F82300028822F400610B04CA
:108800001A0C028001202073204602F0ABFE0020EB
:108810003EBD00BF7400002010B5037B04469807DE
:1088200000F12A81207B032800F02681217B052985
:1088300000F02281227B002A00F01E81237B102B76
:1088400000F01A8162690220D10120731BD4062135
:1088500020788A4BA16153F82010088B00F00203A6
:1088600098B228B1A369012B02D0A069431CF4D1AE
:10887000A169012900F0D780A369013300F0D380FA
:108880004FF0FF30A061E178022907D1A368586852
:10889000012803D142F400126261E0706169CA03E9
:1088A00000F1CA80A378002B40F0C680227873487C
:1088B00050F8223019888AB242F4807119802278E7
:1088C0001F23A36150F82200818ACB0703D5A0693A
:1088D000012807D1A7E0A369012BF8D0A1694B1C9F
:1088E000F2D1F4E7A369013300F09D804FF0FF312E
:1088F000E069A1618389B3F5804F20D15F4850F8CA
:108900002210A268936803F0FE020A8223780421F1
:10891000A16150F82300828A02F002018BB22BB9C8
:10892000A269012A02D0A1694B1CF4D1A0690128D7
:1089300079D0A369013376D04FF0FF32A26122785B
:108940004E4B53F82210888A098B0320A06153F8FC
:1089500022108B8A03F0800083B22BB9A069012812
:1089600002D0A3690133F4D1A16901295BD0A069C8
:10897000431C58D0616941484FF0FF33A36111F4A3
:10898000003FA36850F8222013D1197B118223786D
:108990000322A26150F82300818A01F0800293B281
:1089A000002B3AD1A169012937D0A269531CF3D118
:1089B00033E0597B118203232278A36150F822000F
:1089C000818A01F0800399B219B1A069012807D109
:1089D00029E0A369012BF8D0A1694B1CF0D1F4E781
:1089E000A36901331FD04FF0FF312448A16150F833
:1089F0002230A268117B198222780323A361A3612C
:108A000050F82200818A01F080039AB22AB9A16944
:108A1000012902D0A3690133F4D1A069012802D051
:108A2000A369013304D12046BDE81040FFF7BEB86A
:108A30004FF0FF31A16105E0E178022902D1204623
:108A4000FFF7AAFBA0780522227350B921780B4BBF
:108A500053F82100028891B241F4807303801F20F3
:108A6000A0612278054951F82230988882B242F4F8
:108A700000719980002010BD012010BD74000020FD
:108A800010B5037B9907044650D4007B03284DD0D2
:108A9000217B05294AD0227B002A47D0237B102B3B
:108AA00044D061690220CA0120731ED406222078B6
:108AB0001F4BA26153F820100A8B02F0020083B210
:108AC0002BB1A269012A02D0A069431CF4D1A1698B
:108AD000012902D0A369013304D12046BDE810402A
:108AE000FFF764B84FF0FF32A261A07898B92178FF
:108AF0000F4B53F82100028891B241F48073038038
:108B00006069C30303D520460121FFF745FB03221B
:108B10001F212273A1612078054B53F820108A8809
:108B200090B240F400738B80002010BD012010BD76
:108B30007400002000207047084B10B553F8204007
:108B400001212046FEF7D4FD20460021FEF7D0FD8E
:108B500020460121BDE81040FEF7B2BD4C4F010890
:108B6000084B10B553F8204001212046FEF7C0FD08
:108B700020460021FEF7BCFD20460021BDE8104044
:108B8000FEF79EBD4C4F01082DE9F743244B2549C4
:108B9000254F264E044653F8200051F82420012189
:108BA0001043FEF775FD224836F8141010F82450D3
:108BB00057F824001F4E2A46FEF7A2FC1E4B56F81B
:108BC000240033F814102A461C4DFEF799FC35F8A2
:108BD00014900221002002AD01228DF805108DF8BD
:108BE00004108DF80700694657F824008DF8062018
:108BF00045F8089DFEF73EFC114B56F8240033F86B
:108C000014806946CDF80080FEF734FC57F8240044
:108C100056F824104A46434602F02EFCBDE8FE8377
:108C2000044F0108404F01083C000020784E010825
:108C3000B84E01088C000020F84E0108B24E010821
:108C4000944E010837B5022305460E498DF80530CC
:108C50000D4B31F81520002002AC8DF80400694658
:108C600053F8250044F8082DFEF704FC0748084A8D
:108C700030F8151052F8250000916946FEF7FAFB0E
:108C80003EBD00BFB24E01083C000020944E0108DA
:108C90008C00002038B51C4B04460D4653F82000CC
:108CA0000121FEF7F5FC194A194B52F82400002265
:108CB0009A601A615A61DA611A625A62DA621A6358
:108CC0005A639A63134A18604FF48061996152F8AD
:108CD00024104FF44030EA079862596007D50E4AD5
:108CE0004020D860194652F82400FEF7CBFAAB07B3
:108CF00009D50A48064950F824000023CB60BDE896
:108D00003840FEF7BFBA38BD1C4F0108344F010888
:108D10005C600020104F010880000020A4000020AB
:108D200010B50E4C0E4B54F820401C600C689C6033
:108D3000496819610B4951F8201012F480425960BA
:108D400018BF4FF480724021D9605A62064B044923
:108D500053F82000BDE81040FEF794BA344F0108E4
:108D60005C600020104F01088000002010B50E4C00
:108D70000E4B54F820401C600C689C6049681961D7
:108D80000B4951F8201012F40042596018BF4FF4FB
:108D900080720021D9605A62064B044953F82000C2
:108DA000BDE81040FEF76EBA344F01085C60002049
:108DB000104F0108A400002038B50446C8070D462E
:108DC00004D5074B53F82400FEF7D6F9A90706D5BA
:108DD000044850F82400BDE83840FEF7CDB938BD4E
:108DE00080000020A4000020F7B504460D4616467A
:108DF0001F46FEF7D7FE3D483D4A015D3D488DF8D0
:108E000004100123015D8DF80730135D8DF8061005
:108E100001A88DF80530FEF775FE6A0216D4364AB1
:108E20003648135D364A015D8DF80430135D8DF8C8
:108E3000051001A88DF80630FEF764FE314850F8A1
:108E400024108A8893B243F480708880022F4BD11B
:108E5000F30723D52C492D4B0A5D2D49185D8DF85C
:108E600004200A5D8DF8050001A88DF80620FEF7A4
:108E700049FE284B53F82400016841F010020260BB
:108E800053F82400016841F004020260A80505D5EA
:108E900053F82430186840F008011960B10723D551
:108EA0001D4A1E48135D1E4A015D8DF80430135D96
:108EB0008DF8051001A88DF80630FEF723FE19483D
:108EC00050F82420116841F01003136050F824205A
:108ED000116841F004031360EA0405D550F824003A
:108EE000026842F008010160FEBD00BFA84E010803
:108EF000F44E0108814E0108904E0108AB4E010866
:108F0000FE4E010874000020E04E0108E34E010807
:108F10007E4E010880000020C44E0108AE4E0108BC
:108F2000014F0108A40000200148FFF79BB900BFD2
:108F30001C00002008B50248FEF7EAFE002008BD2C
:108F40001C0000200148FEF771BF00BF1C0000207C
:108F50000148FFF73DB800BF1C0000200148FFF7A3
:108F600081B900BF5400002008B50248FEF7D0FECA
:108F7000002008BD540000200148FEF757BF00BF85
:108F8000540000200148FFF723B800BF5400002020
:108F900037B50023114C01930546032003F0D8F99F
:108FA0002A68013C1369019314D0019B002BF4DA69
:108FB000019B43F001030193019B13612968074B57
:108FC0000A690192013B02D0019AD207F8D403202A
:108FD00003F0BEF9002003B030BD00BF410D030017
:108FE00010B5C4786CB900EB82000333D0F8D00020
:108FF0009B1022469A4204D051F82240046001326C
:10900000F8E7002010BD10B50332D0F8D030921030
:109010000020904204D01C6841F820400130F8E75D
:1090200001EB800010BD00000122F0B5002382702A
:1090300001294FF04002C37082800CD108230370D5
:10904000042343704FF4A073C38002230372C172E0
:109050004FF0A04309E041B90C230370062343708D
:109060004FF4A063C380224BC17203F500624578C0
:109070000261C36001461A460024AC4202F1200698
:1090800001F1040108D202F5106702F530620A65A9
:109090004F6101343246F0E703F5806242610446D5
:1090A00003F58862C0F8CC2014F88C2B03EB421532
:1090B00003F5A06105F5A065A94203D044F8041F9B
:1090C0002031F9E703EB023203F5805100F1CC04C3
:1090D00002F58052914204D044F8041F01F58051FA
:1090E000F8E703F56063C0F80C310020F0BD00BF65
:1090F0000000044038B5037A012B05464FF0000408
:1091000050F80C2F1FD1936B697A64F3104309B1A7
:1091100043F480139363EA68D3686FF386136FF3A5
:1091200096536FF351436FF3D343D360FFF730FF90
:10913000EB78012B19D1052363F34404EB6844F069
:1091400020049C6011E0D36843F04003D360FFF734
:109150001FFF6B7AEA68002B0CBF4FF434134FF4F7
:1091600074139363142003F0FDF8EB78012B01BF17
:10917000EB689C68052262F3440404BF44F02004B9
:109180009C60002038BDC268936843F0010393607F
:1091900000207047C268936823F0010393600020A9
:1091A0007047000007B500230193019B43F02003A3
:1091B0000193019B01F01F0123F4F86343EA81113D
:1091C0000191C368019A1A61C168074B0A6901924B
:1091D000013B02D0019A9206F8D4032003F0B8F8BC
:1091E000002003B05DF804FB410D030007B5002328
:1091F0000193019B43F010030193C368019A1A6124
:10920000C168074B0A690192013B02D0019AD2065C
:10921000F8D4032003F09CF8002003B05DF804FBB1
:10922000410D030008B5C268D36801296FF35D736F
:109230006FF39E7302D143F0005302E009B943F08B
:109240008043D360322003F08DF8002008BDC3684E
:10925000586900F0010080F001007047C3685A6946
:109260009869104070470269136861F30103136045
:109270007047000010B5C26800239361C1686FF0A9
:1092800080424A61C1684FF0FF344C60C1684A6156
:10929000C26809499161C278C1689A4208BF102327
:1092A00043F470138A6943F4605343F00803134393
:1092B0008B61002010BD00BF0008008038B500237E
:1092C0001D46D0F80C311D600269136865F3CC238C
:1092D0001360C37A012B044625D10321FFF7C3FF96
:1092E000E36880225A62E1684FF4001362F30F03CF
:1092F0008B62A02363F30F05E36862F31F45C3F895
:1093000004514FF4907363F30F05E368C0F2200536
:10931000C3F808514FF4A07363F30F05E3686FF3CC
:109320001F45C3F80C5110212046FFF73BFF204694
:10933000FFF75CFF226900231361226953612269F0
:109340004FF0FF3191612269D36104F11802617815
:109350008B4210D2106801680029ACBF00214FF089
:109360009041016011680020086152F8041BFF2041
:1093700088600133EBE704F15403002261788A42EC
:1093800010D2186801680029ACBF00214FF090414D
:10939000016019680020086153F8041BFF208860F1
:1093A0000132EBE72269136943F480731361E378B8
:1093B000012B01BF054B402262F35943226920462D
:1093C00008BF1363FFF756FF002038BD03010100FB
:1093D00003699B68C3F34103022B05D0032B01D023
:1093E000012B03D1022070470120704703207047F2
:1093F000036981699A680B68C2F34102022A06BFB9
:10940000032262F30A036FF30A030B6002695368D5
:1094100043F480735360002070474A780B7830B56E
:10942000012A15BF00EB830200EB8305556DAD6982
:109430001CBF012202FA03F34FF000040CBF9A4054
:1094400063F31F442B6808BF62F30F041A040DD4A2
:109450008A6862F30A03CA7862F39343CA8862F3A4
:10946000995343F0805343F400432B600269D3695E
:109470002343D361002030BD30B54A780B78012AF0
:1094800015BF00EB830200EB8301516D89694FF03A
:1094900000052C466FF3CF3508BF9A400D601ABF08
:1094A000012202FA03F362F30F04026918BF63F3A7
:1094B0001F44D36923EA0403D361002030BD70B593
:1094C0004E780B4609785A69012E00EB810146D18E
:1094D0008D6929682C6962F3120412B966F3DC44C1
:1094E0000BE09E683244013AB2FBF6F262F3DC44D0
:1094F000DA78012A08BF62F35E742C61C278012A0F
:109500001A7805D100EB82021C69926954610BE064
:10951000DC78012C08D05C6934B106690125746BD4
:1095200005FA02F222437263DA78012A07D102694E
:109530009268D20554BF41F0005141F080511A7831
:1095400000EB820241F0044192691160DA78012A4D
:1095500037D1D9681A789B8AFFF742FD31E04E6D0A
:109560009D68316834692AB965F31204012262F3F7
:10957000DC440AE02A44013AB2FBF5F262F3DC442F
:10958000C2F309026A4362F312043461C278012A09
:1095900001BF1A781C6900EB8202526D08BF54614A
:1095A000DA78012A06D15A7912B141F0005101E06E
:1095B00041F080511B7800EB830041F00441436D82
:1095C0001960002070BDF7B54F784D69012F3CD16F
:1095D0008669346833690093DAB2C3F3074335B957
:1095E00065F306028DF8002067F3C4030EE08F6870
:1095F000BD428CBF67F3060265F306028DF80020BA
:109600004FF0010288BF4F6162F3C4038DF802304E
:10961000009B3361C378012B02BF0B780A6900EB12
:10962000830344F0044404BF9B695A613460C378E7
:10963000002B34D14B69002B31D000690978426B83
:1096400001238B401343436329E00E788F6800EBBE
:109650008606736D1C681B690093DAB2C3F3074377
:1096600005B14F6167F306028DF80020012262F315
:10967000C4038DF80230736D009A1A61C378012B10
:1096800002BF0B780A6900EB830344F0044404BF73
:109690005B6D5A610B7800EB8300436D1C6000200A
:1096A00003B0F0BD4B78012B0B7800EB830006D1A3
:1096B00082691368002B04DA43F0804301E0426DB5
:1096C000136843F400131360002070474B78012B9C
:1096D0000B78C97800EB8300A1F102010CBF82690D
:1096E000426D136801296FF3555398BF43F08053BF
:1096F00013600020704702699369D0691840000C1C
:10970000704700EB810102694B6D9B6850691840FE
:10971000704703699869DB69184080B2704782B06E
:1097200000230093C0238DF8033001224FF0000383
:1097300062F3C4038DF8023018238DF80030436DB6
:10974000009A1A61C378012B08D1436D00F2CC5204
:109750005A61436D1A684FF080221A6002B0704758
:109760002DE9F04F85B00446FFF771FD08B90020E0
:1097700026E22046FFF772FD06460028F7D0C0F328
:10978000074909F0080303F0FF00002B55D02046DD
:10979000FFF7B1FF04F154078046A3464FF0000ADB
:1097A000B8F1000F48D018F0010F3DD05FFA8AF2EF
:1097B000114620460192FFF7A4FF10F0010F054665
:1097C000019A22D03B6801259D60E378AB4201BF3E
:1097D0003B681B69C3F31201DBF87C3304BF5B1ADF
:1097E000CBF88C33A74B1B6820461B681146984763
:1097F000E378012B09D1BAF1000F06D194F81131A9
:10980000052B02D12046FFF78AFFAB0742BF3B681A
:1098100002259D602D0707D59A4B1B6820469B6843
:1098200098473B6808259D600AF1010A4FEA5808ED
:1098300004370BF1280BB3E7012019F0040F00F0F7
:10984000A1802046FFF765FF04F1180882462746ED
:109850004FF00009BAF1000F00F093801AF0010FE9
:1098600000F0878022695FFA89FB1569536B04EB6E
:109870008B0123FA0BF38969DB018968DBB22B4387
:1098800003EA0105E8071CD5536B012505FA09F128
:1098900023EA01035363D8F800309D60794B1B68BD
:1098A00020465B6859469847E378AB4209D1B9F145
:1098B000000F06D194F81131042B02D12046FFF796
:1098C0002EFF290742BFD8F8003008259D60EA0620
:1098D00042BFD8F8003010259D606B0642BFD8F813
:1098E000003040259D60A80742BFD8F8003002250F
:1098F0009D6029063DD5D7F83031D7F834515D1B2E
:10990000D7F82431AB4228BF2B46DD1CAD08D8F870
:1099100000309B699BB2AB4227D9D7F83421D7F8E6
:1099200030319A4221D203B3C2EB030CD7F8243171
:10993000D7F828119C4528BF9C461FFA8CF3204677
:109940005A460CF10305CDF804C0FFF749FBD7F8E0
:109950002831DDF804C06344C7F82831D7F8343122
:109960006344AD08C7F83431D1E7D8F8003080251A
:109970009D6009F101094FEA5A0A08F104082837E5
:1099800068E70120F5B2AA0742BFE36802225A61E4
:10999000002E19DAA37A43B1D4F80C31D4F80C2193
:1099A0006FF341036FF3000313602269536823F0E0
:1099B00001035360334B1B6820469B699847E3685B
:1099C0004FF000425A610120C6F307273B072FD50D
:1099D00000238DF80F3094F812318DF80F30294B99
:1099E0001B6820465B6998472369E2689B684FF4CF
:1099F00000615161A27AD2B1D90718D594F8153116
:109A0000012B14D19DF80F30032B10D1D4F80C2169
:109A1000136843F001031360D4F80C21136843F07A
:109A200003031360184A136943F00603136101200E
:109A30002A0708D5134B1B682046DB689847E36864
:109A400008225A610120EB0640D5E268936923F0B1
:109A500010039361E368D3F82080C8F34343022BDB
:109A600008F00F0512D0062B2AD1204604F2CC5163
:109A70000822FFF7C8FA282303FB0545C8F30A1894
:109A800019E000BFB000002000ED00E047F6F073E1
:109A900008EA0303A3B1282303FB0545C8F30A180A
:109AA0002046D5F880134246FFF7ADFAD5F880334B
:109AB0004344C5F88033D5F88C334344C5F88C3320
:109AC000E268936943F0100393610120FD063BD5E2
:109AD000226953684FF0000823F0010353602046C9
:109AE0004146FFF75FFB04F11402434661788B4265
